:03000000020B46AA
:0C0B4600787FE4F6D8FD758111020800EC
:100976004441592054494D4500414C4C204C49476F
:10098600485453204F4646004C414D5031202020BC
:10099600202020202000574F524B494E4720202030
:1009A60020202020004C414D503120202020004E98
:1009B6004F5420574F524B494E47202020202000AD
:1009C6004C414D503220202000574F524B494E4744
:1009D600202020004C414D5032004E4F5420574F9E
:1009E600524B494E4720202020004C414D503300A9
:1009F600574F524B494E47202020202020202020B0
:100A06002020004E4F5420574F524B494E4720202E
:100A1600004E4F2056454849434C4500414C4C201A
:0E0A26004C4947485453204F4646202020009C
:0A0AD000D294C295C2967FF47E0115
:100ADA00E4FDFCC3ED9FEC9E5015E4FBFA0BBB0052
:0F0AEA00010AEB64704A70F50DBD00010C80E449
:010AF90022DA
:100B1A008FA0C2B0C2B1D2B27F017E00120ADAC27D
:060B2A00B27F05020ADAA9
:100B30008FA0D2B0C2B1D2B27F017E00120ADAC257
:060B4000B27F05020ADA93
:0B0A6D007F01120B1A7BFF7A0979F061
:060A78008B0D8A0E890FB0
:100A7E00E4F510F511AB0DAA0EA90F8511828510A4
:100A8E0083120AA3FF600D120B300511E51170E5FC
:040A9E00051080E1DE
:010AA2002231
:100A34008F088D098B0A8A0B890CEF3395E04F7070
:100A440008E509540F44808013AF08EF3395E0FEA6
:100A5400EF64014E700AE509540F44C0FF120B1AEB
:090A6400AB0AAA0BA90C020A78E6
:100AFA007F147E00120ADA7F38120B1A7F0C120B4F
:100B0A001A7F06120B1A7F01120B1A7F80020B1A28
:10080000120AFAC296C295C294C293C292C291C20F
:1008100090209025C296C295C2947F01120B1A7B3C
:10082000FF7A097976120A787FC0120B1A7BFF7A59
:1008300009797F120A78120AD62080253091223059
:10084000901F7F01120B1A7BFF7A09798E120A78AA
:100850007FC0120B1A7BFF7A09799C120A78120A60
:10086000D030802530912230901F7F01120B1A7BEF
:10087000FF7A0979AB120A787FC0120B1A7BFF7AD4
:100880000979B5120A78120AD020812930922630CF
:1008900090237F01120B1A7BFF7A0979C6120A781E
:1008A0007FC0120B1A7BFF7A0979CF120A78C294A3
:1008B000D295120AD43081293092263090237F01BC
:1008C000120B1A7BFF7A0979DA120A787FC0120BB1
:1008D0001A7BFF7A0979E0120A78C294D295120A3B
:1008E000D420822030931D30901A120A6D7FC012DE
:1008F0000B1A7BFF7A0979F6120A78C294C295D254
:1009000096120AD630822030931D30901A120A6D4A
:100910007FC0120B1A7BFF7A0A7909120A78C294F7
:10092000C295D296120AD6209302C296209202C293
:1009300095209102C2942090030208113091030285
:1009400008113092030208113093030208117F014D
:10095000120B1A7BFF7A0A7917120A787FC0120BE2
:100960001A7BFF7A0A7922120A78120AD6C296C234
:0609700095C2940208117B
:100AA300BB010CE58229F582E5833AF583E0225008
:100AB30006E92582F8E622BBFE06E92582F8E22252
:0D0AC300E58229F582E5833AF583E493226C
:00000001FF
